{
  "_format": "hh-sol-artifact-1",
  "contractName": "MapOfCrypto",
  "sourceName": "contracts/MapOfCrypto.sol",
  "abi": [
    {
      "inputs": [
        {
          "internalType": "address",
          "name": "_oracle",
          "type": "address"
        }
      ],
      "stateMutability": "nonpayable",
      "type": "constructor"
    },
    {
      "anonymous": false,
      "inputs": [
        {
          "indexed": true,
          "internalType": "bytes32",
          "name": "id",
          "type": "bytes32"
        }
      ],
      "name": "ChainlinkCancelled",
      "type": "event"
    },
    {
      "anonymous": false,
      "inputs": [
        {
          "indexed": true,
          "internalType": "bytes32",
          "name": "id",
          "type": "bytes32"
        }
      ],
      "name": "ChainlinkFulfilled",
      "type": "event"
    },
    {
      "anonymous": false,
      "inputs": [
        {
          "indexed": true,
          "internalType": "bytes32",
          "name": "id",
          "type": "bytes32"
        }
      ],
      "name": "ChainlinkRequested",
      "type": "event"
    },
    {
      "anonymous": false,
      "inputs": [
        {
          "indexed": true,
          "internalType": "address",
          "name": "from",
          "type": "address"
        },
        {
          "indexed": true,
          "internalType": "address",
          "name": "to",
          "type": "address"
        }
      ],
      "name": "OwnershipTransferRequested",
      "type": "event"
    },
    {
      "anonymous": false,
      "inputs": [
        {
          "indexed": true,
          "internalType": "address",
          "name": "from",
          "type": "address"
        },
        {
          "indexed": true,
          "internalType": "address",
          "name": "to",
          "type": "address"
        }
      ],
      "name": "OwnershipTransferred",
      "type": "event"
    },
    {
      "inputs": [],
      "name": "_bytes",
      "outputs": [
        {
          "internalType": "bytes",
          "name": "",
          "type": "bytes"
        }
      ],
      "stateMutability": "view",
      "type": "function"
    },
    {
      "inputs": [],
      "name": "acceptOwnership",
      "outputs": [],
      "stateMutability": "nonpayable",
      "type": "function"
    },
    {
      "inputs": [
        {
          "internalType": "uint256",
          "name": "requestId",
          "type": "uint256"
        }
      ],
      "name": "acceptPurchaseRequest",
      "outputs": [],
      "stateMutability": "nonpayable",
      "type": "function"
    },
    {
      "inputs": [
        {
          "internalType": "bytes32",
          "name": "_bytes32",
          "type": "bytes32"
        }
      ],
      "name": "bytes32ToString",
      "outputs": [
        {
          "internalType": "string",
          "name": "",
          "type": "string"
        }
      ],
      "stateMutability": "pure",
      "type": "function"
    },
    {
      "inputs": [
        {
          "internalType": "bytes32",
          "name": "_requestId",
          "type": "bytes32"
        },
        {
          "internalType": "uint256",
          "name": "_payment",
          "type": "uint256"
        },
        {
          "internalType": "bytes4",
          "name": "_callbackFunctionId",
          "type": "bytes4"
        },
        {
          "internalType": "uint256",
          "name": "_expiration",
          "type": "uint256"
        }
      ],
      "name": "cancelRequest",
      "outputs": [],
      "stateMutability": "nonpayable",
      "type": "function"
    },
    {
      "inputs": [
        {
          "internalType": "bytes",
          "name": "",
          "type": "bytes"
        }
      ],
      "name": "checkUpkeep",
      "outputs": [
        {
          "internalType": "bool",
          "name": "upkeepNeeded",
          "type": "bool"
        },
        {
          "internalType": "bytes",
          "name": "",
          "type": "bytes"
        }
      ],
      "stateMutability": "view",
      "type": "function"
    },
    {
      "inputs": [
        {
          "internalType": "bytes32",
          "name": "data",
          "type": "bytes32"
        }
      ],
      "name": "cronExecution",
      "outputs": [],
      "stateMutability": "nonpayable",
      "type": "function"
    },
    {
      "inputs": [],
      "name": "currency",
      "outputs": [
        {
          "internalType": "bytes32",
          "name": "",
          "type": "bytes32"
        }
      ],
      "stateMutability": "view",
      "type": "function"
    },
    {
      "inputs": [],
      "name": "firstData",
      "outputs": [
        {
          "internalType": "bytes32",
          "name": "",
          "type": "bytes32"
        }
      ],
      "stateMutability": "view",
      "type": "function"
    },
    {
      "inputs": [
        {
          "internalType": "uint256",
          "name": "requestId",
          "type": "uint256"
        },
        {
          "internalType": "string",
          "name": "packageTrackingNumber",
          "type": "string"
        }
      ],
      "name": "fulfillPurchaseRequest",
      "outputs": [],
      "stateMutability": "nonpayable",
      "type": "function"
    },
    {
      "inputs": [
        {
          "internalType": "bytes32",
          "name": "_requestId",
          "type": "bytes32"
        },
        {
          "internalType": "bytes",
          "name": "bytesResponse",
          "type": "bytes"
        }
      ],
      "name": "fullfillDeliveredTransactions",
      "outputs": [],
      "stateMutability": "nonpayable",
      "type": "function"
    },
    {
      "inputs": [
        {
          "internalType": "bytes32",
          "name": "_requestId",
          "type": "bytes32"
        },
        {
          "internalType": "bytes32",
          "name": "_currency",
          "type": "bytes32"
        },
        {
          "internalType": "uint256",
          "name": "_price",
          "type": "uint256"
        }
      ],
      "name": "fullfillMerchantAPI",
      "outputs": [],
      "stateMutability": "nonpayable",
      "type": "function"
    },
    {
      "inputs": [],
      "name": "getChainlinkToken",
      "outputs": [
        {
          "internalType": "address",
          "name": "",
          "type": "address"
        }
      ],
      "stateMutability": "view",
      "type": "function"
    },
    {
      "inputs": [
        {
          "internalType": "string",
          "name": "jobId",
          "type": "string"
        },
        {
          "internalType": "uint256",
          "name": "merchantId",
          "type": "uint256"
        },
        {
          "internalType": "uint256",
          "name": "productId",
          "type": "uint256"
        }
      ],
      "name": "getDataMerchantAPI",
      "outputs": [],
      "stateMutability": "nonpayable",
      "type": "function"
    },
    {
      "inputs": [],
      "name": "getDeliveredTransactions",
      "outputs": [],
      "stateMutability": "nonpayable",
      "type": "function"
    },
    {
      "inputs": [
        {
          "internalType": "uint256",
          "name": "merchantId",
          "type": "uint256"
        },
        {
          "internalType": "uint256",
          "name": "productId",
          "type": "uint256"
        },
        {
          "internalType": "string",
          "name": "targetCountry",
          "type": "string"
        }
      ],
      "name": "makePurchaseRequest",
      "outputs": [],
      "stateMutability": "payable",
      "type": "function"
    },
    {
      "inputs": [],
      "name": "monitors",
      "outputs": [
        {
          "internalType": "uint256",
          "name": "",
          "type": "uint256"
        }
      ],
      "stateMutability": "view",
      "type": "function"
    },
    {
      "inputs": [],
      "name": "owner",
      "outputs": [
        {
          "internalType": "address",
          "name": "",
          "type": "address"
        }
      ],
      "stateMutability": "view",
      "type": "function"
    },
    {
      "inputs": [
        {
          "internalType": "bytes",
          "name": "",
          "type": "bytes"
        }
      ],
      "name": "performUpkeep",
      "outputs": [],
      "stateMutability": "nonpayable",
      "type": "function"
    },
    {
      "inputs": [],
      "name": "price",
      "outputs": [
        {
          "internalType": "uint256",
          "name": "",
          "type": "uint256"
        }
      ],
      "stateMutability": "view",
      "type": "function"
    },
    {
      "inputs": [
        {
          "internalType": "uint256",
          "name": "",
          "type": "uint256"
        }
      ],
      "name": "requestedPurchaseList",
      "outputs": [
        {
          "internalType": "bool",
          "name": "paid",
          "type": "bool"
        },
        {
          "internalType": "uint256",
          "name": "productId",
          "type": "uint256"
        },
        {
          "internalType": "bool",
          "name": "confirmed",
          "type": "bool"
        }
      ],
      "stateMutability": "view",
      "type": "function"
    },
    {
      "inputs": [],
      "name": "returnRequestedPurchaseList",
      "outputs": [
        {
          "components": [
            {
              "internalType": "bool",
              "name": "paid",
              "type": "bool"
            },
            {
              "internalType": "uint256",
              "name": "productId",
              "type": "uint256"
            },
            {
              "internalType": "bool",
              "name": "confirmed",
              "type": "bool"
            }
          ],
          "internalType": "struct MapOfCrypto.RequestedPurchase[]",
          "name": "",
          "type": "tuple[]"
        }
      ],
      "stateMutability": "view",
      "type": "function"
    },
    {
      "inputs": [
        {
          "internalType": "address",
          "name": "to",
          "type": "address"
        }
      ],
      "name": "transferOwnership",
      "outputs": [],
      "stateMutability": "nonpayable",
      "type": "function"
    },
    {
      "inputs": [],
      "name": "withdrawLink",
      "outputs": [],
      "stateMutability": "nonpayable",
      "type": "function"
    }
  ],
  "bytecode": "0x608060405260016004553480156200001657600080fd5b50604051620020dc380380620020dc8339810160408190526200003991620003b8565b3380600081620000905760405162461bcd60e51b815260206004820152601860248201527f43616e6e6f7420736574206f776e657220746f207a65726f000000000000000060448201526064015b60405180910390fd5b600680546001600160a01b0319166001600160a01b0384811691909117909155811615620000c357620000c3816200025a565b50620000d191505062000307565b600380546001600160a01b0319166001600160a01b03831617905550604080516060808201835260018083526020808401828152848601838152600d80548086018255600082815297517fd7b6990105719101dabeb77144f2a3385c8033acd3af97e9423a695e81ad1eb56003928302818101805460ff1990811694151594909417905595517fd7b6990105719101dabeb77144f2a3385c8033acd3af97e9423a695e81ad1eb68088019190915594517fd7b6990105719101dabeb77144f2a3385c8033acd3af97e9423a695e81ad1eb7968701805484169115159190911790558a51808a018c528881526002818901908152818d018a81528654808c018855878e529251928602808501805487169415159490941790935590518288015551908701805484169115159190911790558a519889018b5287895295880182815299880189815283549788018455929098529551949095029283018054871694151594909417909355945191810191909155905192018054909116911515919091179055620003ea565b6001600160a01b038116331415620002b55760405162461bcd60e51b815260206004820152601760248201527f43616e6e6f74207472616e7366657220746f2073656c66000000000000000000604482015260640162000087565b600780546001600160a01b0319166001600160a01b03838116918217909255600654604051919216907fed8889f560326eb138920d842192f0eb3dd22b4f139c87a2c57538e05bae127890600090a350565b620003b673c89bd4e1632d3a43cb03aaad5262cbe4038bc5716001600160a01b03166338cc48316040518163ffffffff1660e01b815260040160206040518083038186803b1580156200035957600080fd5b505afa1580156200036e573d6000803e3d6000fd5b505050506040513d601f19601f82011682018060405250810190620003949190620003b8565b600280546001600160a01b0319166001600160a01b0392909216919091179055565b565b600060208284031215620003cb57600080fd5b81516001600160a01b0381168114620003e357600080fd5b9392505050565b611ce280620003fa6000396000f3fe60806040526004361061014b5760003560e01c806379462f60116100b6578063a035b1fe1161006f578063a035b1fe146103a2578063b9d345f1146103b8578063e5a6b10f146103d6578063ec65d0f8146103ec578063efce46821461040c578063f2fde38b1461042c57600080fd5b806379462f601461031157806379ba5097146103275780638da5cb5b1461033c5780638dc654a21461035a5780639201de551461036f578063a026b3f71461038f57600080fd5b806339387d6a1161010857806339387d6a1461021e5780634585e33b1461023e5780634f50ea8d146102595780635ab476ee1461027b5780636e04ff0d146102ba578063712f7cf2146102ed57600080fd5b80630b46d6c51461015057806313b17e3514610172578063165d35e11461019d57806318ce105c146101ca57806319f9f888146101df5780632e48c02c146101ff575b600080fd5b34801561015c57600080fd5b5061017061016b3660046115ed565b600c55565b005b34801561017e57600080fd5b5061018761044c565b6040516101949190611945565b60405180910390f35b3480156101a957600080fd5b506101b26104cf565b6040516001600160a01b039091168152602001610194565b3480156101d657600080fd5b506101706104e8565b3480156101eb57600080fd5b506101706101fa366004611749565b61057c565b34801561020b57600080fd5b5061017061021a3660046117af565b5050565b34801561022a57600080fd5b50610170610239366004611606565b61060e565b34801561024a57600080fd5b5061017061021a3660046116d8565b34801561026557600080fd5b5061026e61069f565b60405161019491906119bd565b34801561028757600080fd5b5061029b6102963660046115ed565b61072d565b6040805193151584526020840192909252151590820152606001610194565b3480156102c657600080fd5b506102df6102d53660046116d8565b5060009160609150565b6040516101949291906119a2565b3480156102f957600080fd5b50610303600c5481565b604051908152602001610194565b34801561031d57600080fd5b5061030360085481565b34801561033357600080fd5b50610170610765565b34801561034857600080fd5b506006546001600160a01b03166101b2565b34801561036657600080fd5b50610170610813565b34801561037b57600080fd5b5061026e61038a3660046115ed565b610972565b61017061039d3660046117eb565b505050565b3480156103ae57600080fd5b50610303600a5481565b3480156103c457600080fd5b506101706103d33660046115ed565b50565b3480156103e257600080fd5b5061030360095481565b3480156103f857600080fd5b5061017061040736600461168c565b610aa8565b34801561041857600080fd5b50610170610427366004611632565b610ac2565b34801561043857600080fd5b506101706104473660046115a2565b610b42565b6060600d805480602002602001604051908101604052809291908181526020016000905b828210156104c65760008481526020908190206040805160608101825260038602909201805460ff9081161515845260018083015485870152600290920154161515918301919091529083529092019101610470565b50505050905090565b60006104e36002546001600160a01b031690565b905090565b6040805160208101909152600080825261051261050483610b53565b306377e7234160e11b610b70565b90506105546040518060400160405280600381526020016219d95d60ea1b8152506040518060600160405280603f8152602001611c6e603f9139839190610b95565b61039d81600a61056d670de0b6b3a76400006001611b2f565b6105779190611a30565b610bb3565b600061059861058a85610b53565b30631c9c3eb560e11b610b70565b905060006105a583610bd6565b6040516020016105b59190611866565b60408051601f19818403018152828201909152600a8252691c1c9bd91d58dd15549360b21b602083015291506105ed90839083610b95565b61060682600a61056d670de0b6b3a76400006001611b2f565b505050505050565b60008381526005602052604090205483906001600160a01b0316331461064f5760405162461bcd60e51b8152600401610646906119d0565b60405180910390fd5b60008181526005602052604080822080546001600160a01b03191690555182917f7cc135e0cebb02c3480ae5d74d377283180a2601f8f644edf7987b009316c63a91a250600991909155600a5550565b600b80546106ac90611b91565b80601f01602080910402602001604051908101604052809291908181526020018280546106d890611b91565b80156107255780601f106106fa57610100808354040283529160200191610725565b820191906000526020600020905b81548152906001019060200180831161070857829003601f168201915b505050505081565b600d818154811061073d57600080fd5b600091825260209091206003909102018054600182015460029092015460ff91821693501683565b6007546001600160a01b031633146107b85760405162461bcd60e51b815260206004820152601660248201527526bab9ba10313290383937b837b9b2b21037bbb732b960511b6044820152606401610646565b600680546001600160a01b0319808216339081179093556007805490911690556040516001600160a01b03909116919082907f8be0079c531659141344cd1fd0a4f28419497f9722a3daafe3b4186f6b6457e090600090a350565b61081b610cdb565b600061082f6002546001600160a01b031690565b6040516370a0823160e01b81523060048201529091506001600160a01b0382169063a9059cbb90339083906370a082319060240160206040518083038186803b15801561087b57600080fd5b505afa15801561088f573d6000803e3d6000fd5b505050506040513d601f19601f820116820180604052508101906108b39190611796565b6040516001600160e01b031960e085901b1681526001600160a01b0390921660048301526024820152604401602060405180830381600087803b1580156108f957600080fd5b505af115801561090d573d6000803e3d6000fd5b505050506040513d601f19601f8201168201806040525081019061093191906115cb565b6103d35760405162461bcd60e51b81526020600482015260126024820152712ab730b13632903a37903a3930b739b332b960711b6044820152606401610646565b606060005b60208160ff161080156109ab5750828160ff166020811061099a5761099a611c41565b1a60f81b6001600160f81b03191615155b156109c257806109ba81611be1565b915050610977565b60008160ff166001600160401b038111156109df576109df611c57565b6040519080825280601f01601f191660200182016040528015610a09576020820181803683370190505b509050600091505b60208260ff16108015610a455750838260ff1660208110610a3457610a34611c41565b1a60f81b6001600160f81b03191615155b15610aa157838260ff1660208110610a5f57610a5f611c41565b1a60f81b818360ff1681518110610a7857610a78611c41565b60200101906001600160f81b031916908160001a90535081610a9981611be1565b925050610a11565b9392505050565b610ab0610cdb565b610abc84848484610d30565b50505050565b60008281526005602052604090205482906001600160a01b03163314610afa5760405162461bcd60e51b8152600401610646906119d0565b60008181526005602052604080822080546001600160a01b03191690555182917f7cc135e0cebb02c3480ae5d74d377283180a2601f8f644edf7987b009316c63a91a2505050565b610b4a610cdb565b6103d381610e02565b80516000908290610b675750600092915050565b50506020015190565b610b786114d2565b610b806114d2565b610b8c81868686610ead565b95945050505050565b6080830151610ba49083610eea565b608083015161039d9082610eea565b600354600090610bcd906001600160a01b03168484610f01565b90505b92915050565b606081610bfa5750506040805180820190915260018152600360fc1b602082015290565b8160005b8115610c245780610c0e81611bc6565b9150610c1d9050600a83611a30565b9150610bfe565b6000816001600160401b03811115610c3e57610c3e611c57565b6040519080825280601f01601f191660200182016040528015610c68576020820181803683370190505b5090505b8415610cd357610c7d600183611b4e565b9150610c8a600a86611c01565b610c95906030611a18565b60f81b818381518110610caa57610caa611c41565b60200101906001600160f81b031916908160001a905350610ccc600a86611a30565b9450610c6c565b949350505050565b6006546001600160a01b03163314610d2e5760405162461bcd60e51b815260206004820152601660248201527527b7363c9031b0b63630b1363290313c9037bbb732b960511b6044820152606401610646565b565b60008481526005602052604080822080546001600160a01b0319811690915590516001600160a01b039091169186917fe1fe3afa0f7f761ff0a8b89086790efd5140d2907ebd5b7ff6bfcb5e075fd4c59190a2604051636ee4d55360e01b815260048101869052602481018590526001600160e01b031984166044820152606481018390526001600160a01b03821690636ee4d55390608401600060405180830381600087803b158015610de357600080fd5b505af1158015610df7573d6000803e3d6000fd5b505050505050505050565b6001600160a01b038116331415610e5b5760405162461bcd60e51b815260206004820152601760248201527f43616e6e6f74207472616e7366657220746f2073656c660000000000000000006044820152606401610646565b600780546001600160a01b0319166001600160a01b03838116918217909255600654604051919216907fed8889f560326eb138920d842192f0eb3dd22b4f139c87a2c57538e05bae127890600090a350565b610eb56114d2565b610ec58560800151610100610f92565b50509183526001600160a01b031660208301526001600160e01b031916604082015290565b610ef78260038351610ff7565b61039d82826110fe565b600454600090610f12816001611a18565b60045583516040808601516080870151519151600093633c6d41b960e01b93610f489386938493928991600291906024016118c9565b60408051601f198184030181529190526020810180516001600160e01b03166001600160e01b0319909316929092179091529050610f8886838684611125565b9695505050505050565b604080518082019091526060815260006020820152610fb2602083611c01565b15610fda57610fc2602083611c01565b610fcd906020611b4e565b610fd79083611a18565b91505b506020828101829052604080518085526000815290920101905290565b6017816001600160401b03161161101b57610abc8360e0600585901b168317611292565b60ff816001600160401b03161161105757611041836018611fe0600586901b1617611292565b50610abc836001600160401b03831660016112b7565b61ffff816001600160401b0316116110945761107e836019611fe0600586901b1617611292565b50610abc836001600160401b03831660026112b7565b63ffffffff816001600160401b0316116110d3576110bd83601a611fe0600586901b1617611292565b50610abc836001600160401b03831660046112b7565b6110e883601b611fe0600586901b1617611292565b50610abc836001600160401b03831660086112b7565b604080518082019091526060815260006020820152610bcd838460000151518485516112dd565b6040516bffffffffffffffffffffffff193060601b1660208201526034810184905260009060540160408051808303601f1901815282825280516020918201206000818152600590925291812080546001600160a01b0319166001600160a01b038a1617905590925082917fb5e6e01e79f91267dc17b4e6314d5d4d03593d2ceee0fbb452b750bd70ea5af99190a2600254604051630200057560e51b81526001600160a01b0390911690634000aea0906111e89088908790879060040161191e565b602060405180830381600087803b15801561120257600080fd5b505af1158015611216573d6000803e3d6000fd5b505050506040513d601f19601f8201168201806040525081019061123a91906115cb565b610cd35760405162461bcd60e51b815260206004820152602360248201527f756e61626c6520746f207472616e73666572416e6443616c6c20746f206f7261604482015262636c6560e81b6064820152608401610646565b604080518082019091526060815260006020820152610bcd83846000015151846113c7565b604080518082019091526060815260006020820152610cd3848560000151518585611423565b604080518082019091526060815260006020820152825182111561130057600080fd5b602085015161130f8386611a18565b111561134257611342856113328760200151878661132d9190611a18565b6114a4565b61133d906002611b2f565b6114bb565b6000808651805187602083010193508088870111156113615787860182525b505050602084015b602084106113a15780518252611380602083611a18565b915061138d602082611a18565b905061139a602085611b4e565b9350611369565b51815160001960208690036101000a019081169019919091161790525083949350505050565b604080518082019091526060815260006020820152836020015183106113fc576113fc848560200151600261133d9190611b2f565b835180516020858301018481535080851415611419576001810182525b5093949350505050565b60408051808201909152606081526000602082015260208501516114478584611a18565b111561145b5761145b856113328685611a18565b6000600161146b84610100611a87565b6114759190611b4e565b90508551838682010185831982511617815250805184870111156114995783860181525b509495945050505050565b6000818311156114b5575081610bd0565b50919050565b81516114c78383610f92565b50610abc83826110fe565b6040805160a0810182526000808252602080830182905282840182905260608084018390528451808601909552845283015290608082015290565b60006001600160401b038084111561152757611527611c57565b604051601f8501601f19908116603f0116810190828211818310171561154f5761154f611c57565b8160405280935085815286868601111561156857600080fd5b858560208301376000602087830101525050509392505050565b600082601f83011261159357600080fd5b610bcd8383356020850161150d565b6000602082840312156115b457600080fd5b81356001600160a01b0381168114610aa157600080fd5b6000602082840312156115dd57600080fd5b81518015158114610aa157600080fd5b6000602082840312156115ff57600080fd5b5035919050565b60008060006060848603121561161b57600080fd5b505081359360208301359350604090920135919050565b6000806040838503121561164557600080fd5b8235915060208301356001600160401b0381111561166257600080fd5b8301601f8101851361167357600080fd5b6116828582356020840161150d565b9150509250929050565b600080600080608085870312156116a257600080fd5b843593506020850135925060408501356001600160e01b0319811681146116c857600080fd5b9396929550929360600135925050565b600080602083850312156116eb57600080fd5b82356001600160401b038082111561170257600080fd5b818501915085601f83011261171657600080fd5b81358181111561172557600080fd5b86602082850101111561173757600080fd5b60209290920196919550909350505050565b60008060006060848603121561175e57600080fd5b83356001600160401b0381111561177457600080fd5b61178086828701611582565b9660208601359650604090950135949350505050565b6000602082840312156117a857600080fd5b5051919050565b600080604083850312156117c257600080fd5b8235915060208301356001600160401b038111156117df57600080fd5b61168285828601611582565b60008060006060848603121561180057600080fd5b833592506020840135915060408401356001600160401b0381111561182457600080fd5b61183086828701611582565b9150509250925092565b60008151808452611852816020860160208601611b65565b601f01601f19169290920160200192915050565b7f68747470733a2f2f6d61706f6663727970746f2d636470706933366f65712d75815274632e612e72756e2e6170702f70726f64756374732f60581b6020820152600082516118bc816035850160208701611b65565b9190910160350192915050565b60018060a01b038816815286602082015285604082015263ffffffff60e01b851660608201528360808201528260a082015260e060c0820152600061191160e083018461183a565b9998505050505050505050565b60018060a01b0384168152826020820152606060408201526000610b8c606083018461183a565b602080825282518282018190526000919060409081850190868401855b82811015611995578151805115158552868101518786015285015115158585015260609093019290850190600101611962565b5091979650505050505050565b8215158152604060208201526000610cd3604083018461183a565b602081526000610bcd602083018461183a565b60208082526028908201527f536f75726365206d75737420626520746865206f7261636c65206f6620746865604082015267081c995c5d595cdd60c21b606082015260800190565b60008219821115611a2b57611a2b611c15565b500190565b600082611a3f57611a3f611c2b565b500490565b600181815b80851115611a7f578160001904821115611a6557611a65611c15565b80851615611a7257918102915b93841c9390800290611a49565b509250929050565b6000610bcd8383600082611a9d57506001610bd0565b81611aaa57506000610bd0565b8160018114611ac05760028114611aca57611ae6565b6001915050610bd0565b60ff841115611adb57611adb611c15565b50506001821b610bd0565b5060208310610133831016604e8410600b8410161715611b09575081810a610bd0565b611b138383611a44565b8060001904821115611b2757611b27611c15565b029392505050565b6000816000190483118215151615611b4957611b49611c15565b500290565b600082821015611b6057611b60611c15565b500390565b60005b83811015611b80578181015183820152602001611b68565b83811115610abc5750506000910152565b600181811c90821680611ba557607f821691505b602082108114156114b557634e487b7160e01b600052602260045260246000fd5b6000600019821415611bda57611bda611c15565b5060010190565b600060ff821660ff811415611bf857611bf8611c15565b60010192915050565b600082611c1057611c10611c2b565b500690565b634e487b7160e01b600052601160045260246000fd5b634e487b7160e01b600052601260045260246000fd5b634e487b7160e01b600052603260045260246000fd5b634e487b7160e01b600052604160045260246000fdfe68747470733a2f2f6d61706f6663727970746f2d636470706933366f65712d75632e612e72756e2e6170702f747261636b696e674e65656446756e64696e67a2646970667358221220f38be6ac1f272fd307d3d7e09997c0196792554db6d703f3cbf02402a4a2070c64736f6c63430008070033",
  "linkReferences": {},
  "deployedLinkReferences": {}
}