{
  "address": "0xA2972925C438417C1b115e8EcfC18fE5BB2eE731",
  "abi": [
    {
      "inputs": [
        {
          "internalType": "address",
          "name": "_oracle",
          "type": "address"
        },
        {
          "internalType": "address",
          "name": "_ethUsdFeed",
          "type": "address"
        },
        {
          "internalType": "string",
          "name": "_jobId",
          "type": "string"
        },
        {
          "internalType": "string",
          "name": "_jobExternalAdapter",
          "type": "string"
        }
      ],
      "stateMutability": "nonpayable",
      "type": "constructor"
    },
    {
      "anonymous": false,
      "inputs": [
        {
          "indexed": true,
          "internalType": "bytes32",
          "name": "id",
          "type": "bytes32"
        }
      ],
      "name": "ChainlinkCancelled",
      "type": "event"
    },
    {
      "anonymous": false,
      "inputs": [
        {
          "indexed": true,
          "internalType": "bytes32",
          "name": "id",
          "type": "bytes32"
        }
      ],
      "name": "ChainlinkFulfilled",
      "type": "event"
    },
    {
      "anonymous": false,
      "inputs": [
        {
          "indexed": true,
          "internalType": "bytes32",
          "name": "id",
          "type": "bytes32"
        }
      ],
      "name": "ChainlinkRequested",
      "type": "event"
    },
    {
      "anonymous": false,
      "inputs": [
        {
          "indexed": true,
          "internalType": "address",
          "name": "from",
          "type": "address"
        },
        {
          "indexed": true,
          "internalType": "address",
          "name": "to",
          "type": "address"
        }
      ],
      "name": "OwnershipTransferRequested",
      "type": "event"
    },
    {
      "anonymous": false,
      "inputs": [
        {
          "indexed": true,
          "internalType": "address",
          "name": "from",
          "type": "address"
        },
        {
          "indexed": true,
          "internalType": "address",
          "name": "to",
          "type": "address"
        }
      ],
      "name": "OwnershipTransferred",
      "type": "event"
    },
    {
      "anonymous": false,
      "inputs": [
        {
          "indexed": false,
          "internalType": "address",
          "name": "merchantAddress",
          "type": "address"
        },
        {
          "indexed": false,
          "internalType": "uint256",
          "name": "ethPrice",
          "type": "uint256"
        }
      ],
      "name": "Payment",
      "type": "event"
    },
    {
      "inputs": [],
      "name": "acceptOwnership",
      "outputs": [],
      "stateMutability": "nonpayable",
      "type": "function"
    },
    {
      "inputs": [
        {
          "internalType": "uint256",
          "name": "purchaseId",
          "type": "uint256"
        }
      ],
      "name": "acceptPurchaseRequest",
      "outputs": [],
      "stateMutability": "nonpayable",
      "type": "function"
    },
    {
      "inputs": [
        {
          "internalType": "bytes32",
          "name": "_bytes32",
          "type": "bytes32"
        }
      ],
      "name": "bytes32ToString",
      "outputs": [
        {
          "internalType": "string",
          "name": "",
          "type": "string"
        }
      ],
      "stateMutability": "pure",
      "type": "function"
    },
    {
      "inputs": [
        {
          "internalType": "uint256",
          "name": "purchaseId",
          "type": "uint256"
        }
      ],
      "name": "cancelPurchase",
      "outputs": [],
      "stateMutability": "nonpayable",
      "type": "function"
    },
    {
      "inputs": [
        {
          "internalType": "bytes32",
          "name": "_requestId",
          "type": "bytes32"
        },
        {
          "internalType": "uint256",
          "name": "_payment",
          "type": "uint256"
        },
        {
          "internalType": "bytes4",
          "name": "_callbackFunctionId",
          "type": "bytes4"
        },
        {
          "internalType": "uint256",
          "name": "_expiration",
          "type": "uint256"
        }
      ],
      "name": "cancelRequest",
      "outputs": [],
      "stateMutability": "nonpayable",
      "type": "function"
    },
    {
      "inputs": [
        {
          "internalType": "bytes",
          "name": "data",
          "type": "bytes"
        }
      ],
      "name": "checkNeedPayment",
      "outputs": [],
      "stateMutability": "nonpayable",
      "type": "function"
    },
    {
      "inputs": [
        {
          "internalType": "bytes",
          "name": "",
          "type": "bytes"
        }
      ],
      "name": "checkUpkeep",
      "outputs": [
        {
          "internalType": "bool",
          "name": "upkeepNeeded",
          "type": "bool"
        },
        {
          "internalType": "bytes",
          "name": "performData",
          "type": "bytes"
        }
      ],
      "stateMutability": "view",
      "type": "function"
    },
    {
      "inputs": [
        {
          "internalType": "uint256",
          "name": "purchaseId",
          "type": "uint256"
        },
        {
          "internalType": "string",
          "name": "packageTrackingNumber",
          "type": "string"
        }
      ],
      "name": "fulfillPurchaseRequest",
      "outputs": [],
      "stateMutability": "nonpayable",
      "type": "function"
    },
    {
      "inputs": [
        {
          "internalType": "bytes32",
          "name": "_requestId",
          "type": "bytes32"
        },
        {
          "internalType": "bytes32",
          "name": "_currency",
          "type": "bytes32"
        },
        {
          "internalType": "address",
          "name": "_merchantAddress",
          "type": "address"
        },
        {
          "internalType": "uint256",
          "name": "_price",
          "type": "uint256"
        },
        {
          "internalType": "uint256",
          "name": "productId",
          "type": "uint256"
        }
      ],
      "name": "fullfillMerchantAPI",
      "outputs": [],
      "stateMutability": "nonpayable",
      "type": "function"
    },
    {
      "inputs": [
        {
          "internalType": "bytes32",
          "name": "_requestId",
          "type": "bytes32"
        },
        {
          "internalType": "uint256[]",
          "name": "purchaseNeedFunding",
          "type": "uint256[]"
        }
      ],
      "name": "fullfillPurchasesToPay",
      "outputs": [],
      "stateMutability": "nonpayable",
      "type": "function"
    },
    {
      "inputs": [
        {
          "internalType": "uint256",
          "name": "purchaseId",
          "type": "uint256"
        }
      ],
      "name": "fundPurchase",
      "outputs": [],
      "stateMutability": "payable",
      "type": "function"
    },
    {
      "inputs": [],
      "name": "getChainlinkToken",
      "outputs": [
        {
          "internalType": "address",
          "name": "",
          "type": "address"
        }
      ],
      "stateMutability": "view",
      "type": "function"
    },
    {
      "inputs": [
        {
          "internalType": "uint256",
          "name": "merchantId",
          "type": "uint256"
        },
        {
          "internalType": "uint256",
          "name": "productId",
          "type": "uint256"
        }
      ],
      "name": "getDataMerchantAPI",
      "outputs": [
        {
          "internalType": "bytes32",
          "name": "",
          "type": "bytes32"
        }
      ],
      "stateMutability": "nonpayable",
      "type": "function"
    },
    {
      "inputs": [],
      "name": "getPurchaseList",
      "outputs": [
        {
          "components": [
            {
              "internalType": "uint256",
              "name": "purchaseId",
              "type": "uint256"
            },
            {
              "internalType": "address",
              "name": "merchantAddress",
              "type": "address"
            },
            {
              "internalType": "address",
              "name": "buyerAddress",
              "type": "address"
            },
            {
              "internalType": "bool",
              "name": "accepted",
              "type": "bool"
            },
            {
              "internalType": "uint256",
              "name": "deadline",
              "type": "uint256"
            },
            {
              "internalType": "uint256",
              "name": "ethPrice",
              "type": "uint256"
            },
            {
              "internalType": "uint256",
              "name": "ethFunded",
              "type": "uint256"
            },
            {
              "internalType": "string",
              "name": "trackingNumber",
              "type": "string"
            }
          ],
          "internalType": "struct MapOfCrypto.Purchase[]",
          "name": "",
          "type": "tuple[]"
        }
      ],
      "stateMutability": "view",
      "type": "function"
    },
    {
      "inputs": [],
      "name": "getPurchasesToPay",
      "outputs": [],
      "stateMutability": "nonpayable",
      "type": "function"
    },
    {
      "inputs": [
        {
          "internalType": "uint256",
          "name": "merchantId",
          "type": "uint256"
        },
        {
          "internalType": "uint256",
          "name": "productId",
          "type": "uint256"
        }
      ],
      "name": "makePurchaseRequest",
      "outputs": [],
      "stateMutability": "payable",
      "type": "function"
    },
    {
      "inputs": [],
      "name": "owner",
      "outputs": [
        {
          "internalType": "address",
          "name": "",
          "type": "address"
        }
      ],
      "stateMutability": "view",
      "type": "function"
    },
    {
      "inputs": [
        {
          "internalType": "bytes",
          "name": "performData",
          "type": "bytes"
        }
      ],
      "name": "performUpkeep",
      "outputs": [],
      "stateMutability": "nonpayable",
      "type": "function"
    },
    {
      "inputs": [],
      "name": "timeout",
      "outputs": [
        {
          "internalType": "uint256",
          "name": "",
          "type": "uint256"
        }
      ],
      "stateMutability": "view",
      "type": "function"
    },
    {
      "inputs": [
        {
          "internalType": "address",
          "name": "to",
          "type": "address"
        }
      ],
      "name": "transferOwnership",
      "outputs": [],
      "stateMutability": "nonpayable",
      "type": "function"
    },
    {
      "inputs": [
        {
          "internalType": "address",
          "name": "target",
          "type": "address"
        }
      ],
      "name": "withdraw",
      "outputs": [],
      "stateMutability": "nonpayable",
      "type": "function"
    },
    {
      "inputs": [],
      "name": "withdrawLink",
      "outputs": [],
      "stateMutability": "nonpayable",
      "type": "function"
    },
    {
      "stateMutability": "payable",
      "type": "receive"
    }
  ],
  "transactionHash": "0x6f8cdabacec6291700858cbc6aed3fa1fd99d29591a73c08bb8c21057b5ddae9",
  "args": [
    "0x74d40EAE0E54Ea30178625c111CEDBf9069e6189",
    "0x9326BFA02ADD2366b30bacB125260Af641031331",
    "e36caa3ff82e4ad6b6df65b01c6382b7",
    "66853ba406694258ab477e707675f0fa"
  ],
  "numDeployments": 9,
  "solcInputHash": "2afe8f37ea7afd78ecd562bf8a90a3b3",
  "bytecode": "0x608060405260016004553480156200001657600080fd5b50604051620035a7380380620035a783398101604081905262000039916200043a565b3380600081620000905760405162461bcd60e51b815260206004820152601860248201527f43616e6e6f7420736574206f776e657220746f207a65726f000000000000000060448201526064015b60405180910390fd5b600680546001600160a01b0319166001600160a01b0384811691909117909155811615620000c357620000c3816200013d565b50620000d1915050620001ea565b600380546001600160a01b0319166001600160a01b038616179055600f80546001600160a01b0319166001600160a01b03851617905581516200011c9060089060208501906200029b565b508051620001329060099060208401906200029b565b50505050506200051d565b6001600160a01b038116331415620001985760405162461bcd60e51b815260206004820152601760248201527f43616e6e6f74207472616e7366657220746f2073656c66000000000000000000604482015260640162000087565b600780546001600160a01b0319166001600160a01b03838116918217909255600654604051919216907fed8889f560326eb138920d842192f0eb3dd22b4f139c87a2c57538e05bae127890600090a350565b6200029973c89bd4e1632d3a43cb03aaad5262cbe4038bc5716001600160a01b03166338cc48316040518163ffffffff1660e01b815260040160206040518083038186803b1580156200023c57600080fd5b505afa15801562000251573d6000803e3d6000fd5b505050506040513d601f19601f8201168201806040525081019062000277919062000415565b600280546001600160a01b0319166001600160a01b0392909216919091179055565b565b828054620002a990620004ca565b90600052602060002090601f016020900481019282620002cd576000855562000318565b82601f10620002e857805160ff191683800117855562000318565b8280016001018555821562000318579182015b8281111562000318578251825591602001919060010190620002fb565b50620003269291506200032a565b5090565b5b808211156200032657600081556001016200032b565b80516001600160a01b03811681146200035957600080fd5b919050565b600082601f8301126200037057600080fd5b81516001600160401b03808211156200038d576200038d62000507565b604051601f8301601f19908116603f01168101908282118183101715620003b857620003b862000507565b81604052838152602092508683858801011115620003d557600080fd5b600091505b83821015620003f95785820183015181830184015290820190620003da565b838211156200040b5760008385830101525b9695505050505050565b6000602082840312156200042857600080fd5b620004338262000341565b9392505050565b600080600080608085870312156200045157600080fd5b6200045c8562000341565b93506200046c6020860162000341565b60408601519093506001600160401b03808211156200048a57600080fd5b62000498888389016200035e565b93506060870151915080821115620004af57600080fd5b50620004be878288016200035e565b91505092959194509250565b600181811c90821680620004df57607f821691505b602082108114156200050157634e487b7160e01b600052602260045260246000fd5b50919050565b634e487b7160e01b600052604160045260246000fd5b61307a806200052d6000396000f3fe6080604052600436106101395760003560e01c80638dc654a2116100ab578063bad2e6d81161006f578063bad2e6d814610377578063bd0cf8311461038a578063c3634ddc1461039f578063d4bb9067146103bf578063ec65d0f8146103e1578063f2fde38b1461040157600080fd5b80638dc654a2146102e25780639201de55146102f75780639e880e5014610324578063a30451ee14610337578063b9d345f11461035757600080fd5b80636e04ff0d116100fd5780636e04ff0d1461021d57806370dea79a1461024b5780637353f5521461026f57806379ba50971461028f5780638c3acd14146102a45780638da5cb5b146102c457600080fd5b8063098a6dc314610169578063165d35e11461018b5780632e48c02c146101bd5780634585e33b146101dd57806351cff8d9146101fd57600080fd5b3661016457336000908152600a60205260408120805434929061015d908490612def565b9091555050005b600080fd5b34801561017557600080fd5b5061018961018436600461290b565b610421565b005b34801561019757600080fd5b506101a061044d565b6040516001600160a01b0390911681526020015b60405180910390f35b3480156101c957600080fd5b506101896101d83660046129bb565b610466565b3480156101e957600080fd5b506101896101f836600461289a565b6105c7565b34801561020957600080fd5b506101896102183660046126d4565b610713565b34801561022957600080fd5b5061023d61023836600461289a565b6107fc565b6040516101b4929190612cae565b34801561025757600080fd5b5061026161025881565b6040519081526020016101b4565b34801561027b57600080fd5b5061018961028a3660046127c1565b6108ff565b34801561029b57600080fd5b50610189610b70565b3480156102b057600080fd5b506102616102bf366004612a0b565b610c1e565b3480156102d057600080fd5b506006546001600160a01b03166101a0565b3480156102ee57600080fd5b50610189610da8565b34801561030357600080fd5b506103176103123660046127a8565b610f0a565b6040516101b49190612cc9565b610189610332366004612a0b565b611040565b34801561034357600080fd5b50610189610352366004612807565b6110a5565b34801561036357600080fd5b506101896103723660046127a8565b611267565b6101896103853660046127a8565b611420565b34801561039657600080fd5b50610189611637565b3480156103ab57600080fd5b506101896103ba3660046127a8565b611675565b3480156103cb57600080fd5b506103d46118f6565b6040516101b49190612bec565b3480156103ed57600080fd5b506101896103fc36600461284e565b611af3565b34801561040d57600080fd5b5061018961041c3660046126d4565b611b07565b60008180602001905181019061043791906126ef565b80519091501561044957610449611637565b5050565b60006104616002546001600160a01b031690565b905090565b61046f82611b18565b6104945760405162461bcd60e51b815260040161048b90612cdc565b60405180910390fd5b6000828152600c60205260409020600101546001600160a01b031633146105235760405162461bcd60e51b815260206004820152603f60248201527f4f6e6c79206d65726368616e7420666f7220746869732070757263686173652060448201527f63616e20737570706c792074686520747261636b696e67206e756d6265722100606482015260840161048b565b6000828152600c6020526040902060020154600160a01b900460ff1661059d5760405162461bcd60e51b815260206004820152602960248201527f4f6e6c79206163636570746564207075726368617365732063616e2062652066604482015268756c66696c6c65642160b81b606482015260840161048b565b6000828152600c6020908152604090912082516105c2926006909201918401906124a8565b505050565b600080806105d78486018661296c565b600e5492955090935091505b83811015610611576105f481611b18565b1561060157809350610611565b61060a81612f9d565b90506105e3565b50600e83905560005b8181101561070b5761065683828151811061063757610637613018565b60200260200101516000908152600c6020526040902060030154421190565b156106fb576000818152600c60209081526040808320600581015460028201546001600160a01b03168552600a90935290832080549193909161069a908490612def565b90915550506000828152600c602052604081208181556001810180546001600160a01b03191690556002810180546001600160a81b0319169055600381018290556004810182905560058101829055906106f7600683018261252c565b5050505b61070481612f9d565b905061061a565b505050505050565b336000908152600a602052604090205461077a5760405162461bcd60e51b815260206004820152602260248201527f43616e6e6f7420776974686472617720776974686f757420612062616c616e63604482015261652160f01b606482015260840161048b565b336000908152600a602052604080822080549083905590519091906001600160a01b0384169083908381818185875af1925050503d80600081146107da576040519150601f19603f3d011682016040523d82523d6000602084013e6107df565b606091505b50509050806105c25750336000908152600a602052604090205550565b60006060600061080a612566565b600e546000905b600d54811080156108225750601482105b1561088b5761083081611b18565b1561087b578361083e578093505b6000818152600c602052604090206003015442111561087b5780838361086381612f9d565b94506014811061087557610875613018565b60200201525b61088481612f9d565b9050610811565b508015158061089b5750600e5483115b156108d25760018383836040516020016108b793929190612d5b565b604051602081830303815290604052945094505050506108f8565b604080516000602082018190529101604051602081830303815290604052945094505050505b9250929050565b60008281526005602052604090205482906001600160a01b031633146109375760405162461bcd60e51b815260040161048b90612d13565b60008181526005602052604080822080546001600160a01b03191690555182917f7cc135e0cebb02c3480ae5d74d377283180a2601f8f644edf7987b009316c63a91a260005b8251811015610b6a576000600c600085848151811061099e5761099e613018565b602002602001015181526020019081526020016000206004015490506000600c60008685815181106109d2576109d2613018565b60209081029190910181015182528181019290925260409081016000206001015481516001600160a01b039091168082529281018590529192507fd4f43975feb89f48dd30cabbb32011045be187d1e11c8ea9faa43efc35282519910160405180910390a1600c6000868581518110610a4d57610a4d613018565b602090810291909101810151825281019190915260400160009081208181556001810180546001600160a01b03191690556002810180546001600160a81b031916905560038101829055600481018290556005810182905590610ab3600683018261252c565b50506000816001600160a01b03168360405160006040518083038185875af1925050503d8060008114610b02576040519150601f19603f3d011682016040523d82523d6000602084013e610b07565b606091505b5090915050600181151514610b545760405162461bcd60e51b81526020600482015260136024820152722330b4b632b2103234b9ba3934b13aba34b7b760691b604482015260640161048b565b5050508080610b6290612f9d565b91505061097d565b50505050565b6007546001600160a01b03163314610bc35760405162461bcd60e51b815260206004820152601660248201527526bab9ba10313290383937b837b9b2b21037bbb732b960511b604482015260640161048b565b600680546001600160a01b0319808216339081179093556007805490911690556040516001600160a01b03909116919082907f8be0079c531659141344cd1fd0a4f28419497f9722a3daafe3b4186f6b6457e090600090a350565b600080610cc5610cb760088054610c3490612f68565b80601f0160208091040260200160405190810160405280929190818152602001828054610c6090612f68565b8015610cad5780601f10610c8257610100808354040283529160200191610cad565b820191906000526020600020905b815481529060010190602001808311610c9057829003601f168201915b5050505050611b38565b3063518228f760e11b611b55565b90506000610cd284611b7a565b604051602001610ce29190612b0d565b60405160208183030381529060405290506000610cfe86611b7a565b604051602001610d0e9190612aa9565b60408051601f19818403018152828201909152600a8252691c1c9bd91d58dd15549360b21b60208301529150610d4690849084611c7f565b60408051808201909152600b81526a1b595c98da185b9d15549360aa1b6020820152610d7490849083611c7f565b610d9c83600a610d8d670de0b6b3a76400006001612f06565b610d979190612e07565b611c9d565b93505050505b92915050565b610db0611cb7565b6000610dc46002546001600160a01b031690565b6040516370a0823160e01b81523060048201529091506001600160a01b0382169063a9059cbb90339083906370a082319060240160206040518083038186803b158015610e1057600080fd5b505afa158015610e24573d6000803e3d6000fd5b505050506040513d601f19601f82011682018060405250810190610e489190612953565b6040516001600160e01b031960e085901b1681526001600160a01b0390921660048301526024820152604401602060405180830381600087803b158015610e8e57600080fd5b505af1158015610ea2573d6000803e3d6000fd5b505050506040513d601f19601f82011682018060405250810190610ec69190612786565b610f075760405162461bcd60e51b81526020600482015260126024820152712ab730b13632903a37903a3930b739b332b960711b604482015260640161048b565b50565b606060005b60208160ff16108015610f435750828160ff1660208110610f3257610f32613018565b1a60f81b6001600160f81b03191615155b15610f5a5780610f5281612fb8565b915050610f0f565b60008160ff166001600160401b03811115610f7757610f7761302e565b6040519080825280601f01601f191660200182016040528015610fa1576020820181803683370190505b509050600091505b60208260ff16108015610fdd5750838260ff1660208110610fcc57610fcc613018565b1a60f81b6001600160f81b03191615155b1561103957838260ff1660208110610ff757610ff7613018565b1a60f81b818360ff168151811061101057611010613018565b60200101906001600160f81b031916908160001a9053508161103181612fb8565b925050610fa9565b9392505050565b600d80546000918261105183612f9d565b909155506000818152600c602052604081208281556002810180546001600160a01b0319163317905534600582015591925061108d8585610c1e565b6000908152600b602052604090209290925550505050565b60008581526005602052604090205485906001600160a01b031633146110dd5760405162461bcd60e51b815260040161048b90612d13565b60008181526005602052604080822080546001600160a01b03191690555182917f7cc135e0cebb02c3480ae5d74d377283180a2601f8f644edf7987b009316c63a91a26000868152600b602052604090205461113881611b18565b6111545760405162461bcd60e51b815260040161048b90612cdc565b6000818152600c60205260408082206001810180546001600160a01b0319166001600160a01b038a811691909117909155600f548351633fabe5a360e21b8152935192949391169163feaf968c9160048082019260a092909190829003018186803b1580156111c257600080fd5b505afa1580156111d6573d6000803e3d6000fd5b505050506040513d601f19601f820116820180604052508101906111fa9190612a2d565b505050915050600081876127106112119190612f06565b61122390670de0b6b3a7640000612f06565b61122d9190612e07565b60048401819055905061124261025842612def565b60039093019290925550505060009586525050600b6020525050604082209190915550565b61127081611b18565b61128c5760405162461bcd60e51b815260040161048b90612cdc565b6000818152600c60205260409020600101546001600160a01b031633146112f55760405162461bcd60e51b815260206004820181905260248201527f4f6e6c79206d65726368616e742063616e206163636570742072657175657374604482015260640161048b565b6000818152600c60205260409020600301544211156113615760405162461bcd60e51b815260206004820152602260248201527f43616e6e6f742061636365707420616e20657870697265642070757263686173604482015261652160f01b606482015260840161048b565b6000818152600c60205260409020600581015460049091015411156113dd5760405162461bcd60e51b815260206004820152602c60248201527f43616e6e6f74206163636570742061207075726368617365207468617420697360448201526b206e6f742066756e6465642160a01b606482015260840161048b565b6000818152600c60205260409020600201805460ff60a01b1916600160a01b17905561140b61025842612def565b6000918252600c602052604090912060030155565b600034116114865760405162461bcd60e51b815260206004820152602d60248201527f43616e6e6f742066756e64206120707572636861736520776974686f7574207360448201526c656e64696e6720636f696e732160981b606482015260840161048b565b61148f81611b18565b6114ab5760405162461bcd60e51b815260040161048b90612cdc565b6000818152600c6020526040902060020154600160a01b900460ff161561151e5760405162461bcd60e51b815260206004820152602160248201527f43616e6e6f742066756e6420616e2061636365707465642070757263686173656044820152602160f81b606482015260840161048b565b6000818152600c602052604090206003015442111561157f5760405162461bcd60e51b815260206004820181905260248201527f43616e6e6f742066756e6420616e206578706972656420707572636861736521604482015260640161048b565b6000818152600c6020526040902060048101546005909101546115a3903490612def565b11156116045760405162461bcd60e51b815260206004820152602a60248201527f43616e6e6f742066756e6420746865207075726368617365206265796f6e64206044820152697468652070726963652160b01b606482015260840161048b565b6000818152600c602052604081206005018054349290611625908490612def565b9091555061140b905061025842612def565b600061165a61164c60098054610c3490612f68565b306339a9faa960e11b611b55565b905061044981600a610d8d670de0b6b3a76400006001612f06565b61167e81611b18565b6116d65760405162461bcd60e51b8152602060048201526024808201527f43616e6e6f742063616e63656c206e6f6e2d6578697374696e672070757263686044820152636173652160e01b606482015260840161048b565b6000818152600c6020526040902060028101546001600160a01b0316331415611777576002810154600160a01b900460ff16156117725760405162461bcd60e51b815260206004820152603460248201527f43616e6e6f742063616e63656c206120707572636861736520616674657220696044820152737420686173206265656e2061636365707465642160601b606482015260840161048b565b611868565b60018101546001600160a01b031633141561180a576002810154600160a01b900460ff1615156001146117725760405162461bcd60e51b815260206004820152603560248201527f43616e6e6f742063616e63656c206120707572636861736520696620697420686044820152746173206e6f74206265656e2061636365707465642160581b606482015260840161048b565b60405162461bcd60e51b815260206004820152602d60248201527f4f6e6c79206275796572206f72206d65726368616e742063616e2063616e636560448201526c6c20612070757263686173652160981b606482015260840161048b565b600581015460028201546001600160a01b03166000908152600a602052604081208054909190611899908490612def565b90915550506000828152600c602052604081208181556001810180546001600160a01b03191690556002810180546001600160a81b031916905560038101829055600481018290556005810182905590610b6a600683018261252c565b60606000600d546001600160401b038111156119145761191461302e565b6040519080825280602002602001820160405280156119a157816020015b61198e6040518061010001604052806000815260200160006001600160a01b0316815260200160006001600160a01b03168152602001600015158152602001600081526020016000815260200160008152602001606081525090565b8152602001906001900390816119325790505b50905060005b600d54811015611aed576000818152600c60209081526040918290208251610100810184528154815260018201546001600160a01b0390811693820193909352600282015492831693810193909352600160a01b90910460ff161515606083015260038101546080830152600481015460a0830152600581015460c083015260068101805460e084019190611a3b90612f68565b80601f0160208091040260200160405190810160405280929190818152602001828054611a6790612f68565b8015611ab45780601f10611a8957610100808354040283529160200191611ab4565b820191906000526020600020905b815481529060010190602001808311611a9757829003601f168201915b505050505081525050828281518110611acf57611acf613018565b60200260200101819052508080611ae590612f9d565b9150506119a7565b50919050565b611afb611cb7565b610b6a84848484611d0c565b611b0f611cb7565b610f0781611dde565b6000908152600c60205260409020600201546001600160a01b0316151590565b80516000908290611b4c5750600092915050565b50506020015190565b611b5d612585565b611b65612585565b611b7181868686611e89565b95945050505050565b606081611b9e5750506040805180820190915260018152600360fc1b602082015290565b8160005b8115611bc85780611bb281612f9d565b9150611bc19050600a83612e07565b9150611ba2565b6000816001600160401b03811115611be257611be261302e565b6040519080825280601f01601f191660200182016040528015611c0c576020820181803683370190505b5090505b8415611c7757611c21600183612f25565b9150611c2e600a86612fd8565b611c39906030612def565b60f81b818381518110611c4e57611c4e613018565b60200101906001600160f81b031916908160001a905350611c70600a86612e07565b9450611c10565b949350505050565b6080830151611c8e9083611ec6565b60808301516105c29082611ec6565b600354600090611039906001600160a01b03168484611edd565b6006546001600160a01b03163314611d0a5760405162461bcd60e51b815260206004820152601660248201527527b7363c9031b0b63630b1363290313c9037bbb732b960511b604482015260640161048b565b565b60008481526005602052604080822080546001600160a01b0319811690915590516001600160a01b039091169186917fe1fe3afa0f7f761ff0a8b89086790efd5140d2907ebd5b7ff6bfcb5e075fd4c59190a2604051636ee4d55360e01b815260048101869052602481018590526001600160e01b031984166044820152606481018390526001600160a01b03821690636ee4d55390608401600060405180830381600087803b158015611dbf57600080fd5b505af1158015611dd3573d6000803e3d6000fd5b505050505050505050565b6001600160a01b038116331415611e375760405162461bcd60e51b815260206004820152601760248201527f43616e6e6f74207472616e7366657220746f2073656c66000000000000000000604482015260640161048b565b600780546001600160a01b0319166001600160a01b03838116918217909255600654604051919216907fed8889f560326eb138920d842192f0eb3dd22b4f139c87a2c57538e05bae127890600090a350565b611e91612585565b611ea18560800151610100611f6e565b50509183526001600160a01b031660208301526001600160e01b031916604082015290565b611ed38260038351611fd3565b6105c282826120da565b600454600090611eee816001612def565b60045583516040808601516080870151519151600093633c6d41b960e01b93611f24938693849392899160029190602401612b70565b60408051601f198184030181529190526020810180516001600160e01b03166001600160e01b0319909316929092179091529050611f6486838684612101565b9695505050505050565b604080518082019091526060815260006020820152611f8e602083612fd8565b15611fb657611f9e602083612fd8565b611fa9906020612f25565b611fb39083612def565b91505b506020828101829052604080518085526000815290920101905290565b6017816001600160401b031611611ff757610b6a8360e0600585901b16831761226e565b60ff816001600160401b0316116120335761201d836018611fe0600586901b161761226e565b50610b6a836001600160401b0383166001612293565b61ffff816001600160401b0316116120705761205a836019611fe0600586901b161761226e565b50610b6a836001600160401b0383166002612293565b63ffffffff816001600160401b0316116120af5761209983601a611fe0600586901b161761226e565b50610b6a836001600160401b0383166004612293565b6120c483601b611fe0600586901b161761226e565b50610b6a836001600160401b0383166008612293565b604080518082019091526060815260006020820152611039838460000151518485516122b9565b6040516bffffffffffffffffffffffff193060601b1660208201526034810184905260009060540160408051808303601f1901815282825280516020918201206000818152600590925291812080546001600160a01b0319166001600160a01b038a1617905590925082917fb5e6e01e79f91267dc17b4e6314d5d4d03593d2ceee0fbb452b750bd70ea5af99190a2600254604051630200057560e51b81526001600160a01b0390911690634000aea0906121c490889087908790600401612bc5565b602060405180830381600087803b1580156121de57600080fd5b505af11580156121f2573d6000803e3d6000fd5b505050506040513d601f19601f820116820180604052508101906122169190612786565b611c775760405162461bcd60e51b815260206004820152602360248201527f756e61626c6520746f207472616e73666572416e6443616c6c20746f206f7261604482015262636c6560e81b606482015260840161048b565b60408051808201909152606081526000602082015261103983846000015151846123a3565b604080518082019091526060815260006020820152611c778485600001515185856123ff565b60408051808201909152606081526000602082015282518211156122dc57600080fd5b60208501516122eb8386612def565b111561231e5761231e8561230e876020015187866123099190612def565b612480565b612319906002612f06565b612491565b60008086518051876020830101935080888701111561233d5787860182525b505050602084015b6020841061237d578051825261235c602083612def565b9150612369602082612def565b9050612376602085612f25565b9350612345565b51815160001960208690036101000a019081169019919091161790525083949350505050565b604080518082019091526060815260006020820152836020015183106123d8576123d884856020015160026123199190612f06565b8351805160208583010184815350808514156123f5576001810182525b5093949350505050565b60408051808201909152606081526000602082015260208501516124238584612def565b1115612437576124378561230e8685612def565b6000600161244784610100612e5e565b6124519190612f25565b90508551838682010185831982511617815250805184870111156124755783860181525b509495945050505050565b600081831115611aed575081610da2565b815161249d8383611f6e565b50610b6a83826120da565b8280546124b490612f68565b90600052602060002090601f0160209004810192826124d6576000855561251c565b82601f106124ef57805160ff191683800117855561251c565b8280016001018555821561251c579182015b8281111561251c578251825591602001919060010190612501565b506125289291506125c0565b5090565b50805461253890612f68565b6000825580601f10612548575050565b601f016020900490600052602060002090810190610f0791906125c0565b6040518061028001604052806014906020820280368337509192915050565b6040805160a0810182526000808252602080830182905282840182905260608084018390528451808601909552845283015290608082015290565b5b8082111561252857600081556001016125c1565b60006001600160401b038311156125ee576125ee61302e565b612601601f8401601f1916602001612d9c565b905082815283838301111561261557600080fd5b828260208301376000602084830101529392505050565b80356001600160a01b038116811461264357600080fd5b919050565b600082601f83011261265957600080fd5b8135602061266e61266983612dcc565b612d9c565b80838252828201915082860187848660051b890101111561268e57600080fd5b60005b858110156126ad57813584529284019290840190600101612691565b5090979650505050505050565b805169ffffffffffffffffffff8116811461264357600080fd5b6000602082840312156126e657600080fd5b6110398261262c565b6000602080838503121561270257600080fd5b82516001600160401b0381111561271857600080fd5b8301601f8101851361272957600080fd5b805161273761266982612dcc565b80828252848201915084840188868560051b870101111561275757600080fd5b600094505b8385101561277a57805183526001949094019391850191850161275c565b50979650505050505050565b60006020828403121561279857600080fd5b8151801515811461103957600080fd5b6000602082840312156127ba57600080fd5b5035919050565b600080604083850312156127d457600080fd5b8235915060208301356001600160401b038111156127f157600080fd5b6127fd85828601612648565b9150509250929050565b600080600080600060a0868803121561281f57600080fd5b85359450602086013593506128366040870161262c565b94979396509394606081013594506080013592915050565b6000806000806080858703121561286457600080fd5b843593506020850135925060408501356001600160e01b03198116811461288a57600080fd5b9396929550929360600135925050565b600080602083850312156128ad57600080fd5b82356001600160401b03808211156128c457600080fd5b818501915085601f8301126128d857600080fd5b8135818111156128e757600080fd5b8660208285010111156128f957600080fd5b60209290920196919550909350505050565b60006020828403121561291d57600080fd5b81356001600160401b0381111561293357600080fd5b8201601f8101841361294457600080fd5b611c77848235602084016125d5565b60006020828403121561296557600080fd5b5051919050565b60008060006060848603121561298157600080fd5b8335925060208401356001600160401b0381111561299e57600080fd5b6129aa86828701612648565b925050604084013590509250925092565b600080604083850312156129ce57600080fd5b8235915060208301356001600160401b038111156129eb57600080fd5b8301601f810185136129fc57600080fd5b6127fd858235602084016125d5565b60008060408385031215612a1e57600080fd5b50508035926020909101359150565b600080600080600060a08688031215612a4557600080fd5b612a4e866126ba565b9450602086015193506040860151925060608601519150612a71608087016126ba565b90509295509295909350565b60008151808452612a95816020860160208601612f3c565b601f01601f19169290920160200192915050565b7f68747470733a2f2f6d61706f6663727970746f2d636470706933366f65712d75815275632e612e72756e2e6170702f6d65726368616e74732f60501b602082015260008251612b00816036850160208701612f3c565b9190910160360192915050565b7f68747470733a2f2f6d61706f6663727970746f2d636470706933366f65712d75815274632e612e72756e2e6170702f70726f64756374732f60581b602082015260008251612b63816035850160208701612f3c565b9190910160350192915050565b60018060a01b038816815286602082015285604082015263ffffffff60e01b851660608201528360808201528260a082015260e060c08201526000612bb860e0830184612a7d565b9998505050505050505050565b60018060a01b0384168152826020820152606060408201526000611b716060830184612a7d565b60006020808301818452808551808352604092508286019150828160051b87010184880160005b83811015612ca057888303603f19018552815180518452878101516001600160a01b03908116898601528782015116878501526060808201511515908501526080808201519085015260a0808201519085015260c0808201519085015260e09081015161010091850182905290612c8c81860183612a7d565b968901969450505090860190600101612c13565b509098975050505050505050565b8215158152604060208201526000611c776040830184612a7d565b6020815260006110396020830184612a7d565b60208082526018908201527f507572636861736520646f6573206e6f74206578697374210000000000000000604082015260600190565b60208082526028908201527f536f75726365206d75737420626520746865206f7261636c65206f6620746865604082015267081c995c5d595cdd60c21b606082015260800190565b8381526102c0810160208083018560005b6014811015612d8957815183529183019190830190600101612d6c565b50505050826102a0830152949350505050565b604051601f8201601f191681016001600160401b0381118282101715612dc457612dc461302e565b604052919050565b60006001600160401b03821115612de557612de561302e565b5060051b60200190565b60008219821115612e0257612e02612fec565b500190565b600082612e1657612e16613002565b500490565b600181815b80851115612e56578160001904821115612e3c57612e3c612fec565b80851615612e4957918102915b93841c9390800290612e20565b509250929050565b60006110398383600082612e7457506001610da2565b81612e8157506000610da2565b8160018114612e975760028114612ea157612ebd565b6001915050610da2565b60ff841115612eb257612eb2612fec565b50506001821b610da2565b5060208310610133831016604e8410600b8410161715612ee0575081810a610da2565b612eea8383612e1b565b8060001904821115612efe57612efe612fec565b029392505050565b6000816000190483118215151615612f2057612f20612fec565b500290565b600082821015612f3757612f37612fec565b500390565b60005b83811015612f57578181015183820152602001612f3f565b83811115610b6a5750506000910152565b600181811c90821680612f7c57607f821691505b60208210811415611aed57634e487b7160e01b600052602260045260246000fd5b6000600019821415612fb157612fb1612fec565b5060010190565b600060ff821660ff811415612fcf57612fcf612fec565b60010192915050565b600082612fe757612fe7613002565b500690565b634e487b7160e01b600052601160045260246000fd5b634e487b7160e01b600052601260045260246000fd5b634e487b7160e01b600052603260045260246000fd5b634e487b7160e01b600052604160045260246000fdfea264697066735822122025d144f37bf661ea21202c0330b1f1a2936dacfa1b9764619b67e3cdcfe009e164736f6c63430008070033",
  "devdoc": {
    "kind": "dev",
    "methods": {
      "performUpkeep(bytes)": {
        "details": "The input to this method should not be trusted, and the caller of the method should not even be restricted to any single registry. Anyone should be able call it, and the input should be validated, there is no guarantee that the data passed in is the performData returned from checkUpkeep. This could happen due to malicious keepers, racing keepers, or simply a state change while the performUpkeep transaction is waiting for confirmation. Always validate the data passed in.",
        "params": {
          "performData": "is the data which was passed back from the checkData simulation. If it is encoded, it can easily be decoded into other types by calling `abi.decode`. This data should not be trusted, and should be validated against the contract's current state."
        }
      },
      "withdraw(address)": {
        "params": {
          "target": "The address to send coins to"
        }
      }
    },
    "version": 1
  },
  "userdoc": {
    "kind": "user",
    "methods": {
      "acceptOwnership()": {
        "notice": "Allows an ownership transfer to be completed by the recipient."
      },
      "checkUpkeep(bytes)": {
        "notice": "Keeper functions"
      },
      "owner()": {
        "notice": "Get the current owner"
      },
      "performUpkeep(bytes)": {
        "notice": "method that is actually executed by the keepers, via the registry. The data returned by the checkUpkeep simulation will be passed into this method to actually be executed."
      },
      "transferOwnership(address)": {
        "notice": "Allows an owner to begin transferring ownership to a new address, pending."
      },
      "withdraw(address)": {
        "notice": "Withdraws coins from the sender's internal balance"
      }
    },
    "version": 1
  },
  "storageLayout": {
    "storage": [
      {
        "astId": 319,
        "contract": "contracts/MapOfCrypto.sol:MapOfCrypto",
        "label": "s_ens",
        "offset": 0,
        "slot": "0",
        "type": "t_contract(ENSInterface)1241"
      },
      {
        "astId": 321,
        "contract": "contracts/MapOfCrypto.sol:MapOfCrypto",
        "label": "s_ensNode",
        "offset": 0,
        "slot": "1",
        "type": "t_bytes32"
      },
      {
        "astId": 324,
        "contract": "contracts/MapOfCrypto.sol:MapOfCrypto",
        "label": "s_link",
        "offset": 0,
        "slot": "2",
        "type": "t_contract(LinkTokenInterface)1355"
      },
      {
        "astId": 327,
        "contract": "contracts/MapOfCrypto.sol:MapOfCrypto",
        "label": "s_oracle",
        "offset": 0,
        "slot": "3",
        "type": "t_contract(OperatorInterface)1435"
      },
      {
        "astId": 330,
        "contract": "contracts/MapOfCrypto.sol:MapOfCrypto",
        "label": "s_requestCount",
        "offset": 0,
        "slot": "4",
        "type": "t_uint256"
      },
      {
        "astId": 334,
        "contract": "contracts/MapOfCrypto.sol:MapOfCrypto",
        "label": "s_pendingRequests",
        "offset": 0,
        "slot": "5",
        "type": "t_mapping(t_bytes32,t_address)"
      },
      {
        "astId": 889,
        "contract": "contracts/MapOfCrypto.sol:MapOfCrypto",
        "label": "s_owner",
        "offset": 0,
        "slot": "6",
        "type": "t_address"
      },
      {
        "astId": 891,
        "contract": "contracts/MapOfCrypto.sol:MapOfCrypto",
        "label": "s_pendingOwner",
        "offset": 0,
        "slot": "7",
        "type": "t_address"
      },
      {
        "astId": 2509,
        "contract": "contracts/MapOfCrypto.sol:MapOfCrypto",
        "label": "jobId",
        "offset": 0,
        "slot": "8",
        "type": "t_string_storage"
      },
      {
        "astId": 2511,
        "contract": "contracts/MapOfCrypto.sol:MapOfCrypto",
        "label": "jobExternalAdapter",
        "offset": 0,
        "slot": "9",
        "type": "t_string_storage"
      },
      {
        "astId": 2538,
        "contract": "contracts/MapOfCrypto.sol:MapOfCrypto",
        "label": "balances",
        "offset": 0,
        "slot": "10",
        "type": "t_mapping(t_address,t_uint256)"
      },
      {
        "astId": 2542,
        "contract": "contracts/MapOfCrypto.sol:MapOfCrypto",
        "label": "requestToPurchase",
        "offset": 0,
        "slot": "11",
        "type": "t_mapping(t_bytes32,t_uint256)"
      },
      {
        "astId": 2547,
        "contract": "contracts/MapOfCrypto.sol:MapOfCrypto",
        "label": "purchases",
        "offset": 0,
        "slot": "12",
        "type": "t_mapping(t_uint256,t_struct(Purchase)2528_storage)"
      },
      {
        "astId": 2549,
        "contract": "contracts/MapOfCrypto.sol:MapOfCrypto",
        "label": "purchaseCounter",
        "offset": 0,
        "slot": "13",
        "type": "t_uint256"
      },
      {
        "astId": 2551,
        "contract": "contracts/MapOfCrypto.sol:MapOfCrypto",
        "label": "lowestPurchaseId",
        "offset": 0,
        "slot": "14",
        "type": "t_uint256"
      },
      {
        "astId": 2554,
        "contract": "contracts/MapOfCrypto.sol:MapOfCrypto",
        "label": "ethUsdFeed",
        "offset": 0,
        "slot": "15",
        "type": "t_contract(AggregatorV3Interface)1128"
      }
    ],
    "types": {
      "t_address": {
        "encoding": "inplace",
        "label": "address",
        "numberOfBytes": "20"
      },
      "t_bool": {
        "encoding": "inplace",
        "label": "bool",
        "numberOfBytes": "1"
      },
      "t_bytes32": {
        "encoding": "inplace",
        "label": "bytes32",
        "numberOfBytes": "32"
      },
      "t_contract(AggregatorV3Interface)1128": {
        "encoding": "inplace",
        "label": "contract AggregatorV3Interface",
        "numberOfBytes": "20"
      },
      "t_contract(ENSInterface)1241": {
        "encoding": "inplace",
        "label": "contract ENSInterface",
        "numberOfBytes": "20"
      },
      "t_contract(LinkTokenInterface)1355": {
        "encoding": "inplace",
        "label": "contract LinkTokenInterface",
        "numberOfBytes": "20"
      },
      "t_contract(OperatorInterface)1435": {
        "encoding": "inplace",
        "label": "contract OperatorInterface",
        "numberOfBytes": "20"
      },
      "t_mapping(t_address,t_uint256)": {
        "encoding": "mapping",
        "key": "t_address",
        "label": "mapping(address => uint256)",
        "numberOfBytes": "32",
        "value": "t_uint256"
      },
      "t_mapping(t_bytes32,t_address)": {
        "encoding": "mapping",
        "key": "t_bytes32",
        "label": "mapping(bytes32 => address)",
        "numberOfBytes": "32",
        "value": "t_address"
      },
      "t_mapping(t_bytes32,t_uint256)": {
        "encoding": "mapping",
        "key": "t_bytes32",
        "label": "mapping(bytes32 => uint256)",
        "numberOfBytes": "32",
        "value": "t_uint256"
      },
      "t_mapping(t_uint256,t_struct(Purchase)2528_storage)": {
        "encoding": "mapping",
        "key": "t_uint256",
        "label": "mapping(uint256 => struct MapOfCrypto.Purchase)",
        "numberOfBytes": "32",
        "value": "t_struct(Purchase)2528_storage"
      },
      "t_string_storage": {
        "encoding": "bytes",
        "label": "string",
        "numberOfBytes": "32"
      },
      "t_struct(Purchase)2528_storage": {
        "encoding": "inplace",
        "label": "struct MapOfCrypto.Purchase",
        "members": [
          {
            "astId": 2513,
            "contract": "contracts/MapOfCrypto.sol:MapOfCrypto",
            "label": "purchaseId",
            "offset": 0,
            "slot": "0",
            "type": "t_uint256"
          },
          {
            "astId": 2515,
            "contract": "contracts/MapOfCrypto.sol:MapOfCrypto",
            "label": "merchantAddress",
            "offset": 0,
            "slot": "1",
            "type": "t_address"
          },
          {
            "astId": 2517,
            "contract": "contracts/MapOfCrypto.sol:MapOfCrypto",
            "label": "buyerAddress",
            "offset": 0,
            "slot": "2",
            "type": "t_address"
          },
          {
            "astId": 2519,
            "contract": "contracts/MapOfCrypto.sol:MapOfCrypto",
            "label": "accepted",
            "offset": 20,
            "slot": "2",
            "type": "t_bool"
          },
          {
            "astId": 2521,
            "contract": "contracts/MapOfCrypto.sol:MapOfCrypto",
            "label": "deadline",
            "offset": 0,
            "slot": "3",
            "type": "t_uint256"
          },
          {
            "astId": 2523,
            "contract": "contracts/MapOfCrypto.sol:MapOfCrypto",
            "label": "ethPrice",
            "offset": 0,
            "slot": "4",
            "type": "t_uint256"
          },
          {
            "astId": 2525,
            "contract": "contracts/MapOfCrypto.sol:MapOfCrypto",
            "label": "ethFunded",
            "offset": 0,
            "slot": "5",
            "type": "t_uint256"
          },
          {
            "astId": 2527,
            "contract": "contracts/MapOfCrypto.sol:MapOfCrypto",
            "label": "trackingNumber",
            "offset": 0,
            "slot": "6",
            "type": "t_string_storage"
          }
        ],
        "numberOfBytes": "224"
      },
      "t_uint256": {
        "encoding": "inplace",
        "label": "uint256",
        "numberOfBytes": "32"
      }
    }
  }
}